:020000001329C2
:0E000600213083120313FD00FD0B07280800B4
:06001400000000000800DE
:10001A000F3083120313FC004730FD00FD0B132839
:0A002A00FC0B132800000000080082
:1000340083120313CA1B20288613212886174A1B00
:100044002528061326280617CA1A2A2886122B28BA
:1000540086164A1A2F280612302806164418342801
:1000640006143528061086140A208610CA193C285E
:1000740086133D2886174A19412806134228061775
:10008400CA1846288612472886164A184B2806128C
:100094004C280616441850280614512806108614B5
:1000A4000A208610441C58280D20592803200800D3
:0E00B4008312031343088A00420882000800EA
:1000C2008312031344104908CA001A20441408007A
:1000D2007B28803083120313C5008E28C030C500F0
:1000E2008E289430C5008E28D430C5008E288030EA
:1000F200C5008E28831203134508013A03196A28A2
:100102004508023A03196F284508033A0319722871
:100112004508043A0319752878284603F000450873
:10012200F0077008C5007008CA001A204410C80100
:1001320048084707840000080319A728480847070A
:1001420084000008C9006120C80A992844140800E4
:1001520083160313861006100612861206138613E0
:1001620083128610061086130613861206120D20BD
:100172000D200D208616061686140A2086100D20E4
:1001820086140A2086100D2086140A2086100D205F
:10019200061286140A2086100D2086140A20861064
:1001A2008612861786140A2086100D2086130616DC
:1001B20086140A208610061286140A2086100D2044
:1001C20086140A208610061686140A2086100D2030
:1001D200061286140A208610861706178616061639
:0C01E20086140A2086100D20441408002A
:1001EE00023083120313FB000430FC00BA30FD0012
:1001FE00FD0BFF28FC0BFF28FB0BFF28000008005F
:10020E005A208A110A128000840AC20A0319C30AEC
:08021E00F003031D072908008D
:10022600453083120313A0005830A1003A30A200D3
:100236004C30A3004330A4004430A500A6014E3044
:10024600A7004F30A8003A30A9003030AA00363057
:10025600AB00AC015730AD006530AE006C30AF007E
:100266006C30B0006330B1006F30B2006D30B30057
:100276006530B400B5014230B6004530B7004330B2
:10028600B8005330B9002030BA003330BB003130EB
:10029600BC003430BD003230BE003130BF00C0017A
:1002A6009701900183169F018B01073083129F00EF
:1002B600A9200130CA001A200C30CA001A201A30B0
:1002C600FC00F830FD00FD0B6629FC0B66290000DA
:1002D6000130C5000530C6002D30C7006920023048
:1002E600C5000330C6003630C70069200B30FB005E
:1002F6002630FC005D30FD00FD0B7F29FC0B7F29BD
:10030600FB0B7F29000000000130CA001A200130D3
:10031600C5000630C6002030C70069200230C5007F
:100326000630C6002730C70069200B30FB00263098
:10033600FC005D30FD00FD0B9E29FC0B9E29FB0B8E
:100346009E2900000000C101043041020318B129B2
:100356001C30CA001A20F720C10AA729C10109309A
:1003660041020318BC291830CA001A20F720C10A16
:10037600B229C101053041020318C7291C30CA0041
:0C0386001A20F720C10ABD29B129C8299E
:02400E006A2125
:00000001FF
