:020000003F2897
:10000800FF00030E8301A5000A08A6008A017B08E9
:10001800A2007C08A1007D08A0008B1C3228861451
:1000280006110230FB000430FC00BA30FD00FD0B65
:100038001B28FC0B1B28FB0B1B2800008610061531
:100048000230FB000430FC00BA30FD00FD0B2A280A
:10005800FC0B2A28FB0B2A2800008B102208FB0027
:100068002108FC002008FD0026088A00250E8300D0
:06007800FF0E7F0E0900DF
:10007E0001308316031386008501073083129F001B
:10008E00831681018B170B170B168312061105149D
:10009E0085100230FB000430FC00BA30FD00FD0B71
:1000AE005628FC0B5628FB0B56280000051085140D
:1000BE000230FB000430FC00BA30FD00FD0B652859
:1000CE00FC0B6528FB0B652800008B104C286E2856
:02400E007A2115
:00000001FF
